{
  "_format": "hh-sol-artifact-1",
  "contractName": "WavePortal",
  "sourceName": "contracts/WavePortal.sol",
  "abi": [
    {
      "inputs": [],
      "stateMutability": "payable",
      "type": "constructor"
    },
    {
      "anonymous": false,
      "inputs": [
        {
          "indexed": true,
          "internalType": "address",
          "name": "from",
          "type": "address"
        },
        {
          "indexed": false,
          "internalType": "uint256",
          "name": "timestamp",
          "type": "uint256"
        },
        {
          "indexed": false,
          "internalType": "string",
          "name": "message",
          "type": "string"
        },
        {
          "indexed": false,
          "internalType": "uint256",
          "name": "num",
          "type": "uint256"
        },
        {
          "indexed": false,
          "internalType": "bool",
          "name": "edited",
          "type": "bool"
        }
      ],
      "name": "NewWave",
      "type": "event"
    },
    {
      "inputs": [
        {
          "internalType": "string",
          "name": "_message",
          "type": "string"
        },
        {
          "internalType": "uint256",
          "name": "_num",
          "type": "uint256"
        }
      ],
      "name": "editWave",
      "outputs": [],
      "stateMutability": "nonpayable",
      "type": "function"
    },
    {
      "inputs": [],
      "name": "getAllWaves",
      "outputs": [
        {
          "components": [
            {
              "internalType": "address",
              "name": "waver",
              "type": "address"
            },
            {
              "internalType": "string",
              "name": "message",
              "type": "string"
            },
            {
              "internalType": "uint256",
              "name": "timestamp",
              "type": "uint256"
            },
            {
              "internalType": "uint256",
              "name": "num",
              "type": "uint256"
            },
            {
              "internalType": "bool",
              "name": "edited",
              "type": "bool"
            }
          ],
          "internalType": "struct WavePortal.Wave[]",
          "name": "",
          "type": "tuple[]"
        }
      ],
      "stateMutability": "view",
      "type": "function"
    },
    {
      "inputs": [
        {
          "internalType": "uint256",
          "name": "_num",
          "type": "uint256"
        }
      ],
      "name": "getOwner",
      "outputs": [
        {
          "internalType": "address",
          "name": "",
          "type": "address"
        }
      ],
      "stateMutability": "view",
      "type": "function"
    },
    {
      "inputs": [],
      "name": "getTotalWaves",
      "outputs": [
        {
          "internalType": "uint256",
          "name": "",
          "type": "uint256"
        }
      ],
      "stateMutability": "view",
      "type": "function"
    },
    {
      "inputs": [
        {
          "internalType": "uint256",
          "name": "_num",
          "type": "uint256"
        }
      ],
      "name": "getWave",
      "outputs": [
        {
          "components": [
            {
              "internalType": "address",
              "name": "waver",
              "type": "address"
            },
            {
              "internalType": "string",
              "name": "message",
              "type": "string"
            },
            {
              "internalType": "uint256",
              "name": "timestamp",
              "type": "uint256"
            },
            {
              "internalType": "uint256",
              "name": "num",
              "type": "uint256"
            },
            {
              "internalType": "bool",
              "name": "edited",
              "type": "bool"
            }
          ],
          "internalType": "struct WavePortal.Wave",
          "name": "",
          "type": "tuple"
        }
      ],
      "stateMutability": "view",
      "type": "function"
    },
    {
      "inputs": [
        {
          "internalType": "address",
          "name": "",
          "type": "address"
        }
      ],
      "name": "lastWavedAt",
      "outputs": [
        {
          "internalType": "uint256",
          "name": "",
          "type": "uint256"
        }
      ],
      "stateMutability": "view",
      "type": "function"
    },
    {
      "inputs": [
        {
          "internalType": "string",
          "name": "_message",
          "type": "string"
        }
      ],
      "name": "wave",
      "outputs": [],
      "stateMutability": "nonpayable",
      "type": "function"
    }
  ],
  "bytecode": "0x60806040526200004f6040518060400160405280601981526020017f57652068617665206265656e20636f6e737472756374656421000000000000008152506200007760201b62000b6c1760201c565b606444426200005f9190620001c4565b6200006b919062000261565b60018190555062000308565b62000117816040516024016200008e919062000184565b6040516020818303038152906040527f41304fac000000000000000000000000000000000000000000000000000000007bffffffffffffffffffffffffffffffffffffffffffffffffffffffff19166020820180517bffffffffffffffffffffffffffffffffffffffffffffffffffffffff83818316178352505050506200011a60201b60201c565b50565b60008151905060006a636f6e736f6c652e6c6f679050602083016000808483855afa5050505050565b60006200015082620001a8565b6200015c8185620001b3565b93506200016e8185602086016200022b565b6200017981620002f7565b840191505092915050565b60006020820190508181036000830152620001a0818462000143565b905092915050565b600081519050919050565b600082825260208201905092915050565b6000620001d18262000221565b9150620001de8362000221565b9250827fffffffffffffffffffffffffffffffffffffffffffffffffffffffffffffffff0382111562000216576200021562000299565b5b828201905092915050565b6000819050919050565b60005b838110156200024b5780820151818401526020810190506200022e565b838111156200025b576000848401525b50505050565b60006200026e8262000221565b91506200027b8362000221565b9250826200028e576200028d620002c8565b5b828206905092915050565b7f4e487b7100000000000000000000000000000000000000000000000000000000600052601160045260246000fd5b7f4e487b7100000000000000000000000000000000000000000000000000000000600052601260045260246000fd5b6000601f19601f8301169050919050565b6117bd80620003186000396000f3fe608060405234801561001057600080fd5b506004361061007d5760003560e01c8063a42a46631161005b578063a42a4663146100d8578063bd43a90814610108578063c41a360a14610126578063df215f30146101565761007d565b8063449d46c0146100825780635b4832091461009e5780639a2cdc08146100ba575b600080fd5b61009c60048036038101906100979190610e6f565b610186565b005b6100b860048036038101906100b39190610eb0565b610589565b005b6100c26107e7565b6040516100cf9190611320565b60405180910390f35b6100f260048036038101906100ed9190610e46565b6107f0565b6040516100ff9190611320565b60405180910390f35b610110610808565b60405161011d919061122a565b60405180910390f35b610140600480360381019061013b9190610f04565b61097e565b60405161014d919061120f565b60405180910390f35b610170600480360381019061016b9190610f04565b6109f3565b60405161017d91906112fe565b60405180910390f35b42601e600360003373ffffffffffffffffffffffffffffffffffffffff1673ffffffffffffffffffffffffffffffffffffffff168152602001908152602001600020546101d3919061144e565b10610213576040517f08c379a000000000000000000000000000000000000000000000000000000000815260040161020a906112be565b60405180910390fd5b42600360003373ffffffffffffffffffffffffffffffffffffffff1673ffffffffffffffffffffffffffffffffffffffff168152602001908152602001600020819055506001600080828254610269919061144e565b925050819055506102af6040518060400160405280600d81526020017f257320686173207761766564210000000000000000000000000000000000000081525033610c05565b6000600280549050905060026040518060a001604052803373ffffffffffffffffffffffffffffffffffffffff16815260200184815260200142815260200183815260200160001515815250908060018154018082558091505060019003906000526020600020906005020160009091909190915060008201518160000160006101000a81548173ffffffffffffffffffffffffffffffffffffffff021916908373ffffffffffffffffffffffffffffffffffffffff1602179055506020820151816001019080519060200190610387929190610cca565b50604082015181600201556060820151816003015560808201518160040160006101000a81548160ff0219169083151502179055505050606460015442446103cf919061144e565b6103d9919061144e565b6103e39190611591565b600181905550603260015411610530576104326040518060400160405280600781526020017f257320776f6e210000000000000000000000000000000000000000000000000081525033610c05565b600066038d7ea4c68000905047811115610481576040517f08c379a0000000000000000000000000000000000000000000000000000000008152600401610478906112de565b60405180910390fd5b60003373ffffffffffffffffffffffffffffffffffffffff16826040516104a7906111fa565b60006040518083038185875af1925050503d80600081146104e4576040519150601f19603f3d011682016040523d82523d6000602084013e6104e9565b606091505b505090508061052d576040517f08c379a00000000000000000000000000000000000000000000000000000000081526004016105249061129e565b60405180910390fd5b50505b3373ffffffffffffffffffffffffffffffffffffffff167fac3d8075e745c15887bbe0970c29dc0f3c8d401898e58ca7dbada18ee6a44d01428484600060405161057d949392919061133b565b60405180910390a25050565b3373ffffffffffffffffffffffffffffffffffffffff166105a98261097e565b73ffffffffffffffffffffffffffffffffffffffff16146105c957600080fd5b8160028281548110610604577f4e487b7100000000000000000000000000000000000000000000000000000000600052603260045260246000fd5b90600052602060002090600502016001019080519060200190610628929190610cca565b50600160028281548110610665577f4e487b7100000000000000000000000000000000000000000000000000000000600052603260045260246000fd5b906000526020600020906005020160040160006101000a81548160ff021916908315150217905550600281815481106106c7577f4e487b7100000000000000000000000000000000000000000000000000000000600052603260045260246000fd5b906000526020600020906005020160000160009054906101000a900473ffffffffffffffffffffffffffffffffffffffff1673ffffffffffffffffffffffffffffffffffffffff167fac3d8075e745c15887bbe0970c29dc0f3c8d401898e58ca7dbada18ee6a44d016002838154811061076a577f4e487b7100000000000000000000000000000000000000000000000000000000600052603260045260246000fd5b90600052602060002090600502016002015484600285815481106107b7577f4e487b7100000000000000000000000000000000000000000000000000000000600052603260045260246000fd5b90600052602060002090600502016003015460016040516107db949392919061133b565b60405180910390a25050565b60008054905090565b60036020528060005260406000206000915090505481565b60606002805480602002602001604051908101604052809291908181526020016000905b8282101561097557838290600052602060002090600502016040518060a00160405290816000820160009054906101000a900473ffffffffffffffffffffffffffffffffffffffff1673ffffffffffffffffffffffffffffffffffffffff1673ffffffffffffffffffffffffffffffffffffffff1681526020016001820180546108b59061152e565b80601f01602080910402602001604051908101604052809291908181526020018280546108e19061152e565b801561092e5780601f106109035761010080835404028352916020019161092e565b820191906000526020600020905b81548152906001019060200180831161091157829003601f168201915b5050505050815260200160028201548152602001600382015481526020016004820160009054906101000a900460ff1615151515815250508152602001906001019061082c565b50505050905090565b6000600282815481106109ba577f4e487b7100000000000000000000000000000000000000000000000000000000600052603260045260246000fd5b906000526020600020906005020160000160009054906101000a900473ffffffffffffffffffffffffffffffffffffffff169050919050565b6109fb610d50565b60028281548110610a35577f4e487b7100000000000000000000000000000000000000000000000000000000600052603260045260246000fd5b90600052602060002090600502016040518060a00160405290816000820160009054906101000a900473ffffffffffffffffffffffffffffffffffffffff1673ffffffffffffffffffffffffffffffffffffffff1673ffffffffffffffffffffffffffffffffffffffff168152602001600182018054610ab49061152e565b80601f0160208091040260200160405190810160405280929190818152602001828054610ae09061152e565b8015610b2d5780601f10610b0257610100808354040283529160200191610b2d565b820191906000526020600020905b815481529060010190602001808311610b1057829003601f168201915b5050505050815260200160028201548152602001600382015481526020016004820160009054906101000a900460ff1615151515815250509050919050565b610c0281604051602401610b80919061124c565b6040516020818303038152906040527f41304fac000000000000000000000000000000000000000000000000000000007bffffffffffffffffffffffffffffffffffffffffffffffffffffffff19166020820180517bffffffffffffffffffffffffffffffffffffffffffffffffffffffff8381831617835250505050610ca1565b50565b610c9d8282604051602401610c1b92919061126e565b6040516020818303038152906040527f319af333000000000000000000000000000000000000000000000000000000007bffffffffffffffffffffffffffffffffffffffffffffffffffffffff19166020820180517bffffffffffffffffffffffffffffffffffffffffffffffffffffffff8381831617835250505050610ca1565b5050565b60008151905060006a636f6e736f6c652e6c6f679050602083016000808483855afa5050505050565b828054610cd69061152e565b90600052602060002090601f016020900481019282610cf85760008555610d3f565b82601f10610d1157805160ff1916838001178555610d3f565b82800160010185558215610d3f579182015b82811115610d3e578251825591602001919060010190610d23565b5b509050610d4c9190610d97565b5090565b6040518060a00160405280600073ffffffffffffffffffffffffffffffffffffffff1681526020016060815260200160008152602001600081526020016000151581525090565b5b80821115610db0576000816000905550600101610d98565b5090565b6000610dc7610dc2846113ac565b611387565b905082815260208101848484011115610ddf57600080fd5b610dea8482856114ec565b509392505050565b600081359050610e0181611759565b92915050565b600082601f830112610e1857600080fd5b8135610e28848260208601610db4565b91505092915050565b600081359050610e4081611770565b92915050565b600060208284031215610e5857600080fd5b6000610e6684828501610df2565b91505092915050565b600060208284031215610e8157600080fd5b600082013567ffffffffffffffff811115610e9b57600080fd5b610ea784828501610e07565b91505092915050565b60008060408385031215610ec357600080fd5b600083013567ffffffffffffffff811115610edd57600080fd5b610ee985828601610e07565b9250506020610efa85828601610e31565b9150509250929050565b600060208284031215610f1657600080fd5b6000610f2484828501610e31565b91505092915050565b6000610f3983836110f0565b905092915050565b610f4a816114a4565b82525050565b610f59816114a4565b82525050565b6000610f6a826113ed565b610f748185611410565b935083602082028501610f86856113dd565b8060005b85811015610fc25784840389528151610fa38582610f2d565b9450610fae83611403565b925060208a01995050600181019050610f8a565b50829750879550505050505092915050565b610fdd816114b6565b82525050565b610fec816114b6565b82525050565b6000610ffd826113f8565b611007818561142c565b93506110178185602086016114fb565b6110208161167e565b840191505092915050565b6000611036826113f8565b611040818561143d565b93506110508185602086016114fb565b6110598161167e565b840191505092915050565b600061107160278361143d565b915061107c8261168f565b604082019050919050565b6000611094600a8361143d565b915061109f826116de565b602082019050919050565b60006110b760358361143d565b91506110c282611707565b604082019050919050565b60006110da600083611421565b91506110e582611756565b600082019050919050565b600060a0830160008301516111086000860182610f41565b50602083015184820360208601526111208282610ff2565b915050604083015161113560408601826111dc565b50606083015161114860608601826111dc565b50608083015161115b6080860182610fd4565b508091505092915050565b600060a08301600083015161117e6000860182610f41565b50602083015184820360208601526111968282610ff2565b91505060408301516111ab60408601826111dc565b5060608301516111be60608601826111dc565b5060808301516111d16080860182610fd4565b508091505092915050565b6111e5816114e2565b82525050565b6111f4816114e2565b82525050565b6000611205826110cd565b9150819050919050565b60006020820190506112246000830184610f50565b92915050565b600060208201905081810360008301526112448184610f5f565b905092915050565b60006020820190508181036000830152611266818461102b565b905092915050565b60006040820190508181036000830152611288818561102b565b90506112976020830184610f50565b9392505050565b600060208201905081810360008301526112b781611064565b9050919050565b600060208201905081810360008301526112d781611087565b9050919050565b600060208201905081810360008301526112f7816110aa565b9050919050565b600060208201905081810360008301526113188184611166565b905092915050565b600060208201905061133560008301846111eb565b92915050565b600060808201905061135060008301876111eb565b8181036020830152611362818661102b565b905061137160408301856111eb565b61137e6060830184610fe3565b95945050505050565b60006113916113a2565b905061139d8282611560565b919050565b6000604051905090565b600067ffffffffffffffff8211156113c7576113c661164f565b5b6113d08261167e565b9050602081019050919050565b6000819050602082019050919050565b600081519050919050565b600081519050919050565b6000602082019050919050565b600082825260208201905092915050565b600081905092915050565b600082825260208201905092915050565b600082825260208201905092915050565b6000611459826114e2565b9150611464836114e2565b9250827fffffffffffffffffffffffffffffffffffffffffffffffffffffffffffffffff03821115611499576114986115c2565b5b828201905092915050565b60006114af826114c2565b9050919050565b60008115159050919050565b600073ffffffffffffffffffffffffffffffffffffffff82169050919050565b6000819050919050565b82818337600083830152505050565b60005b838110156115195780820151818401526020810190506114fe565b83811115611528576000848401525b50505050565b6000600282049050600182168061154657607f821691505b6020821081141561155a57611559611620565b5b50919050565b6115698261167e565b810181811067ffffffffffffffff821117156115885761158761164f565b5b80604052505050565b600061159c826114e2565b91506115a7836114e2565b9250826115b7576115b66115f1565b5b828206905092915050565b7f4e487b7100000000000000000000000000000000000000000000000000000000600052601160045260246000fd5b7f4e487b7100000000000000000000000000000000000000000000000000000000600052601260045260246000fd5b7f4e487b7100000000000000000000000000000000000000000000000000000000600052602260045260246000fd5b7f4e487b7100000000000000000000000000000000000000000000000000000000600052604160045260246000fd5b6000601f19601f8301169050919050565b7f4661696c656420746f207769746864726177206d6f6e65792066726f6d20636f60008201527f6e74726163742e00000000000000000000000000000000000000000000000000602082015250565b7f5761697420333073656300000000000000000000000000000000000000000000600082015250565b7f547279696e6720746f207769746864726177206d6f7265206d6f6e657920746860008201527f616e207468657920636f6e7472616374206861732e0000000000000000000000602082015250565b50565b611762816114a4565b811461176d57600080fd5b50565b611779816114e2565b811461178457600080fd5b5056fea2646970667358221220c5673ebdbeaa3f0fa09ab8b95911a0b7e085ae3a9d3481443d9ed4dd6163d59d64736f6c63430008040033",
  "linkReferences": {},
  "deployedLinkReferences": {}
}